{
  "_format": "hh-sol-artifact-1",
  "contractName": "Marketplace",
  "sourceName": "contracts/Marketplace.sol",
  "abi": [
    {
      "inputs": [
        {
          "internalType": "address",
          "name": "addressSeller_",
          "type": "address"
        },
        {
          "internalType": "bytes32",
          "name": "itemId_",
          "type": "bytes32"
        },
        {
          "internalType": "uint256",
          "name": "qty_",
          "type": "uint256"
        }
      ],
      "name": "buy",
      "outputs": [],
      "stateMutability": "payable",
      "type": "function"
    },
    {
      "inputs": [],
      "name": "checkStore",
      "outputs": [
        {
          "internalType": "bool",
          "name": "",
          "type": "bool"
        }
      ],
      "stateMutability": "view",
      "type": "function"
    },
    {
      "inputs": [],
      "name": "createStore",
      "outputs": [],
      "stateMutability": "nonpayable",
      "type": "function"
    },
    {
      "inputs": [
        {
          "internalType": "address",
          "name": "address_",
          "type": "address"
        },
        {
          "internalType": "bytes32",
          "name": "itemId_",
          "type": "bytes32"
        }
      ],
      "name": "getItemByIdAndStoreId",
      "outputs": [
        {
          "components": [
            {
              "internalType": "bytes32",
              "name": "itemId",
              "type": "bytes32"
            },
            {
              "internalType": "string",
              "name": "name",
              "type": "string"
            },
            {
              "internalType": "string",
              "name": "description",
              "type": "string"
            },
            {
              "internalType": "string",
              "name": "image",
              "type": "string"
            },
            {
              "internalType": "uint256",
              "name": "price",
              "type": "uint256"
            },
            {
              "internalType": "uint256",
              "name": "stock",
              "type": "uint256"
            },
            {
              "internalType": "address",
              "name": "ownerId",
              "type": "address"
            },
            {
              "internalType": "uint256",
              "name": "createdAt",
              "type": "uint256"
            }
          ],
          "internalType": "struct Marketplace.Item",
          "name": "",
          "type": "tuple"
        }
      ],
      "stateMutability": "view",
      "type": "function"
    },
    {
      "inputs": [
        {
          "internalType": "address",
          "name": "address_",
          "type": "address"
        }
      ],
      "name": "getItemStoreByAddress",
      "outputs": [
        {
          "components": [
            {
              "internalType": "bytes32",
              "name": "itemId",
              "type": "bytes32"
            },
            {
              "internalType": "string",
              "name": "name",
              "type": "string"
            },
            {
              "internalType": "string",
              "name": "description",
              "type": "string"
            },
            {
              "internalType": "string",
              "name": "image",
              "type": "string"
            },
            {
              "internalType": "uint256",
              "name": "price",
              "type": "uint256"
            },
            {
              "internalType": "uint256",
              "name": "stock",
              "type": "uint256"
            },
            {
              "internalType": "address",
              "name": "ownerId",
              "type": "address"
            },
            {
              "internalType": "uint256",
              "name": "createdAt",
              "type": "uint256"
            }
          ],
          "internalType": "struct Marketplace.Item[]",
          "name": "",
          "type": "tuple[]"
        }
      ],
      "stateMutability": "view",
      "type": "function"
    },
    {
      "inputs": [],
      "name": "getStore",
      "outputs": [
        {
          "internalType": "address[]",
          "name": "",
          "type": "address[]"
        }
      ],
      "stateMutability": "view",
      "type": "function"
    },
    {
      "inputs": [],
      "name": "getTransactionByAddress",
      "outputs": [
        {
          "components": [
            {
              "internalType": "bytes32",
              "name": "transactionId",
              "type": "bytes32"
            },
            {
              "internalType": "bytes32",
              "name": "itemId",
              "type": "bytes32"
            },
            {
              "internalType": "string",
              "name": "name",
              "type": "string"
            },
            {
              "internalType": "string",
              "name": "description",
              "type": "string"
            },
            {
              "internalType": "string",
              "name": "image",
              "type": "string"
            },
            {
              "internalType": "uint256",
              "name": "price",
              "type": "uint256"
            },
            {
              "internalType": "uint256",
              "name": "qty",
              "type": "uint256"
            },
            {
              "internalType": "address",
              "name": "buyer",
              "type": "address"
            },
            {
              "internalType": "uint256",
              "name": "createdAt",
              "type": "uint256"
            }
          ],
          "internalType": "struct Marketplace.Transaction[]",
          "name": "",
          "type": "tuple[]"
        }
      ],
      "stateMutability": "view",
      "type": "function"
    },
    {
      "inputs": [
        {
          "internalType": "address",
          "name": "",
          "type": "address"
        },
        {
          "internalType": "uint256",
          "name": "",
          "type": "uint256"
        }
      ],
      "name": "items",
      "outputs": [
        {
          "internalType": "bytes32",
          "name": "itemId",
          "type": "bytes32"
        },
        {
          "internalType": "string",
          "name": "name",
          "type": "string"
        },
        {
          "internalType": "string",
          "name": "description",
          "type": "string"
        },
        {
          "internalType": "string",
          "name": "image",
          "type": "string"
        },
        {
          "internalType": "uint256",
          "name": "price",
          "type": "uint256"
        },
        {
          "internalType": "uint256",
          "name": "stock",
          "type": "uint256"
        },
        {
          "internalType": "address",
          "name": "ownerId",
          "type": "address"
        },
        {
          "internalType": "uint256",
          "name": "createdAt",
          "type": "uint256"
        }
      ],
      "stateMutability": "view",
      "type": "function"
    },
    {
      "inputs": [],
      "name": "marketPlaceFee",
      "outputs": [
        {
          "internalType": "uint256",
          "name": "",
          "type": "uint256"
        }
      ],
      "stateMutability": "view",
      "type": "function"
    },
    {
      "inputs": [
        {
          "internalType": "string",
          "name": "name_",
          "type": "string"
        },
        {
          "internalType": "string",
          "name": "description_",
          "type": "string"
        },
        {
          "internalType": "string",
          "name": "image_",
          "type": "string"
        },
        {
          "internalType": "uint256",
          "name": "price_",
          "type": "uint256"
        },
        {
          "internalType": "uint256",
          "name": "qty_",
          "type": "uint256"
        }
      ],
      "name": "sell",
      "outputs": [],
      "stateMutability": "nonpayable",
      "type": "function"
    },
    {
      "inputs": [
        {
          "internalType": "uint256",
          "name": "",
          "type": "uint256"
        }
      ],
      "name": "stores",
      "outputs": [
        {
          "internalType": "address",
          "name": "",
          "type": "address"
        }
      ],
      "stateMutability": "view",
      "type": "function"
    },
    {
      "inputs": [
        {
          "internalType": "address",
          "name": "",
          "type": "address"
        },
        {
          "internalType": "uint256",
          "name": "",
          "type": "uint256"
        }
      ],
      "name": "transactions",
      "outputs": [
        {
          "internalType": "bytes32",
          "name": "transactionId",
          "type": "bytes32"
        },
        {
          "internalType": "bytes32",
          "name": "itemId",
          "type": "bytes32"
        },
        {
          "internalType": "string",
          "name": "name",
          "type": "string"
        },
        {
          "internalType": "string",
          "name": "description",
          "type": "string"
        },
        {
          "internalType": "string",
          "name": "image",
          "type": "string"
        },
        {
          "internalType": "uint256",
          "name": "price",
          "type": "uint256"
        },
        {
          "internalType": "uint256",
          "name": "qty",
          "type": "uint256"
        },
        {
          "internalType": "address",
          "name": "buyer",
          "type": "address"
        },
        {
          "internalType": "uint256",
          "name": "createdAt",
          "type": "uint256"
        }
      ],
      "stateMutability": "view",
      "type": "function"
    },
    {
      "inputs": [
        {
          "internalType": "address",
          "name": "",
          "type": "address"
        }
      ],
      "name": "wallets",
      "outputs": [
        {
          "internalType": "uint256",
          "name": "",
          "type": "uint256"
        }
      ],
      "stateMutability": "view",
      "type": "function"
    },
    {
      "inputs": [],
      "name": "withdrawMoney",
      "outputs": [],
      "stateMutability": "nonpayable",
      "type": "function"
    }
  ],
  "bytecode": "0x6080604052600a60005534801561001557600080fd5b50612e53806100256000396000f3fe6080604052600436106100dd5760003560e01c8063a9eb3ac91161007f578063c2722ecc11610059578063c2722ecc146102c2578063c794f20e146102ed578063e8a59cd81461032a578063fb122ac814610367576100dd565b8063a9eb3ac914610255578063ac44600214610280578063bf70e8ca14610297576100dd565b80635c80a435116100bb5780635c80a4351461017b5780636bc69102146101bf578063894fe931146101fc57806389b08f1114610218576100dd565b806314538128146100e25780631a5f6b5e146101275780633f816a2314610150575b600080fd5b3480156100ee57600080fd5b5061010960048036038101906101049190611eaf565b61037e565b60405161011e999897969594939291906126e6565b60405180910390f35b34801561013357600080fd5b5061014e60048036038101906101499190611eeb565b6105a1565b005b34801561015c57600080fd5b50610165610879565b60405161017291906126cb565b60405180910390f35b34801561018757600080fd5b506101a2600480360381019061019d9190611eaf565b61094c565b6040516101b6989796959493929190612788565b60405180910390f35b3480156101cb57600080fd5b506101e660048036038101906101e19190611e24565b610b69565b6040516101f391906128db565b60405180910390f35b61021660048036038101906102119190611e60565b610f70565b005b34801561022457600080fd5b5061023f600480360381019061023a9190611dfb565b61125c565b60405161024c91906128fd565b60405180910390f35b34801561026157600080fd5b5061026a611274565b60405161027791906126a9565b60405180910390f35b34801561028c57600080fd5b5061029561154f565b005b3480156102a357600080fd5b506102ac611682565b6040516102b991906128fd565b60405180910390f35b3480156102ce57600080fd5b506102d7611688565b6040516102e49190612665565b60405180910390f35b3480156102f957600080fd5b50610314600480360381019061030f9190611dfb565b611716565b6040516103219190612687565b60405180910390f35b34801561033657600080fd5b50610351600480360381019061034c9190611fb7565b6119e9565b60405161035e919061264a565b60405180910390f35b34801561037357600080fd5b5061037c611a28565b005b6003602052816000526040600020818154811061039a57600080fd5b9060005260206000209060090201600091509150508060000154908060010154908060020180546103ca90612b64565b80601f01602080910402602001604051908101604052809291908181526020018280546103f690612b64565b80156104435780601f1061041857610100808354040283529160200191610443565b820191906000526020600020905b81548152906001019060200180831161042657829003601f168201915b50505050509080600301805461045890612b64565b80601f016020809104026020016040519081016040528092919081815260200182805461048490612b64565b80156104d15780601f106104a6576101008083540402835291602001916104d1565b820191906000526020600020905b8154815290600101906020018083116104b457829003601f168201915b5050505050908060040180546104e690612b64565b80601f016020809104026020016040519081016040528092919081815260200182805461051290612b64565b801561055f5780601f106105345761010080835404028352916020019161055f565b820191906000526020600020905b81548152906001019060200180831161054257829003601f168201915b5050505050908060050154908060060154908060070160009054906101000a900473ffffffffffffffffffffffffffffffffffffffff16908060080154905089565b600115156105ad610879565b1515146105ef576040517f08c379a00000000000000000000000000000000000000000000000000000000081526004016105e69061281b565b60405180910390fd5b60003342604051602001610604929190612609565b60405160208183030381529060405280519060200120905060006040518061010001604052808381526020018b8b8080601f016020809104026020016040519081016040528093929190818152602001838380828437600081840152601f19601f82011690508083019250505050505050815260200189898080601f016020809104026020016040519081016040528093929190818152602001838380828437600081840152601f19601f82011690508083019250505050505050815260200187878080601f016020809104026020016040519081016040528093929190818152602001838380828437600081840152601f19601f8201169050808301925050505050505081526020018581526020018481526020013373ffffffffffffffffffffffffffffffffffffffff168152602001428152509050600260003373ffffffffffffffffffffffffffffffffffffffff1673ffffffffffffffffffffffffffffffffffffffff1681526020019081526020016000208190806001815401808255809150506001900390600052602060002090600802016000909190919091506000820151816000015560208201518160010190805190602001906107cb929190611c71565b5060408201518160020190805190602001906107e8929190611c71565b506060820151816003019080519060200190610805929190611c71565b506080820151816004015560a0820151816005015560c08201518160060160006101000a81548173ffffffffffffffffffffffffffffffffffffffff021916908373ffffffffffffffffffffffffffffffffffffffff16021790555060e08201518160070155505050505050505050505050565b600080600090505b600180549050811015610943573373ffffffffffffffffffffffffffffffffffffffff16600182815481106108df577f4e487b7100000000000000000000000000000000000000000000000000000000600052603260045260246000fd5b9060005260206000200160009054906101000a900473ffffffffffffffffffffffffffffffffffffffff1673ffffffffffffffffffffffffffffffffffffffff161415610930576001915050610949565b808061093b90612b96565b915050610881565b50600090505b90565b6002602052816000526040600020818154811061096857600080fd5b90600052602060002090600802016000915091505080600001549080600101805461099290612b64565b80601f01602080910402602001604051908101604052809291908181526020018280546109be90612b64565b8015610a0b5780601f106109e057610100808354040283529160200191610a0b565b820191906000526020600020905b8154815290600101906020018083116109ee57829003601f168201915b505050505090806002018054610a2090612b64565b80601f0160208091040260200160405190810160405280929190818152602001828054610a4c90612b64565b8015610a995780601f10610a6e57610100808354040283529160200191610a99565b820191906000526020600020905b815481529060010190602001808311610a7c57829003601f168201915b505050505090806003018054610aae90612b64565b80601f0160208091040260200160405190810160405280929190818152602001828054610ada90612b64565b8015610b275780601f10610afc57610100808354040283529160200191610b27565b820191906000526020600020905b815481529060010190602001808311610b0a57829003601f168201915b5050505050908060040154908060050154908060060160009054906101000a900473ffffffffffffffffffffffffffffffffffffffff16908060070154905088565b610b71611cf7565b60005b600260008573ffffffffffffffffffffffffffffffffffffffff1673ffffffffffffffffffffffffffffffffffffffff16815260200190815260200160002080549050811015610f2e5782600260008673ffffffffffffffffffffffffffffffffffffffff1673ffffffffffffffffffffffffffffffffffffffff1681526020019081526020016000208281548110610c36577f4e487b7100000000000000000000000000000000000000000000000000000000600052603260045260246000fd5b9060005260206000209060080201600001541415610f1b57600260008573ffffffffffffffffffffffffffffffffffffffff1673ffffffffffffffffffffffffffffffffffffffff1681526020019081526020016000208181548110610cc5577f4e487b7100000000000000000000000000000000000000000000000000000000600052603260045260246000fd5b90600052602060002090600802016040518061010001604052908160008201548152602001600182018054610cf990612b64565b80601f0160208091040260200160405190810160405280929190818152602001828054610d2590612b64565b8015610d725780601f10610d4757610100808354040283529160200191610d72565b820191906000526020600020905b815481529060010190602001808311610d5557829003601f168201915b50505050508152602001600282018054610d8b90612b64565b80601f0160208091040260200160405190810160405280929190818152602001828054610db790612b64565b8015610e045780601f10610dd957610100808354040283529160200191610e04565b820191906000526020600020905b815481529060010190602001808311610de757829003601f168201915b50505050508152602001600382018054610e1d90612b64565b80601f0160208091040260200160405190810160405280929190818152602001828054610e4990612b64565b8015610e965780601f10610e6b57610100808354040283529160200191610e96565b820191906000526020600020905b815481529060010190602001808311610e7957829003601f168201915b5050505050815260200160048201548152602001600582015481526020016006820160009054906101000a900473ffffffffffffffffffffffffffffffffffffffff1673ffffffffffffffffffffffffffffffffffffffff1673ffffffffffffffffffffffffffffffffffffffff168152602001600782015481525050915050610f6a565b8080610f2690612b96565b915050610b74565b506040517f08c379a0000000000000000000000000000000000000000000000000000000008152600401610f619061283b565b60405180910390fd5b92915050565b6000610f7c8484610b69565b9050818160a001511015610fc5576040517f08c379a0000000000000000000000000000000000000000000000000000000008152600401610fbc9061287b565b60405180910390fd5b818160800151610fd59190612a51565b3414611016576040517f08c379a000000000000000000000000000000000000000000000000000000000815260040161100d9061285b565b60405180910390fd5b600033844260405160200161102d939291906125cc565b6040516020818303038152906040528051906020012090506000604051806101200160405280838152602001868152602001846020015181526020018460400151815260200184606001518152602001846080015181526020018460a0015181526020013373ffffffffffffffffffffffffffffffffffffffff16815260200142815250905034600460008560c0015173ffffffffffffffffffffffffffffffffffffffff1673ffffffffffffffffffffffffffffffffffffffff168152602001908152602001600020600082825461110691906129fb565b92505081905550611118868686611adb565b600360003373ffffffffffffffffffffffffffffffffffffffff1673ffffffffffffffffffffffffffffffffffffffff168152602001908152602001600020819080600181540180825580915050600190039060005260206000209060090201600090919091909150600082015181600001556020820151816001015560408201518160020190805190602001906111b1929190611c71565b5060608201518160030190805190602001906111ce929190611c71565b5060808201518160040190805190602001906111eb929190611c71565b5060a0820151816005015560c0820151816006015560e08201518160070160006101000a81548173ffffffffffffffffffffffffffffffffffffffff021916908373ffffffffffffffffffffffffffffffffffffffff16021790555061010082015181600801555050505050505050565b60046020528060005260406000206000915090505481565b6060600360003373ffffffffffffffffffffffffffffffffffffffff1673ffffffffffffffffffffffffffffffffffffffff168152602001908152602001600020805480602002602001604051908101604052809291908181526020016000905b82821015611546578382906000526020600020906009020160405180610120016040529081600082015481526020016001820154815260200160028201805461131d90612b64565b80601f016020809104026020016040519081016040528092919081815260200182805461134990612b64565b80156113965780601f1061136b57610100808354040283529160200191611396565b820191906000526020600020905b81548152906001019060200180831161137957829003601f168201915b505050505081526020016003820180546113af90612b64565b80601f01602080910402602001604051908101604052809291908181526020018280546113db90612b64565b80156114285780601f106113fd57610100808354040283529160200191611428565b820191906000526020600020905b81548152906001019060200180831161140b57829003601f168201915b5050505050815260200160048201805461144190612b64565b80601f016020809104026020016040519081016040528092919081815260200182805461146d90612b64565b80156114ba5780601f1061148f576101008083540402835291602001916114ba565b820191906000526020600020905b81548152906001019060200180831161149d57829003601f168201915b5050505050815260200160058201548152602001600682015481526020016007820160009054906101000a900473ffffffffffffffffffffffffffffffffffffffff1673ffffffffffffffffffffffffffffffffffffffff1673ffffffffffffffffffffffffffffffffffffffff168152602001600882015481525050815260200190600101906112d5565b50505050905090565b60003373ffffffffffffffffffffffffffffffffffffffff16600460003373ffffffffffffffffffffffffffffffffffffffff1673ffffffffffffffffffffffffffffffffffffffff168152602001908152602001600020546040516115b490612635565b60006040518083038185875af1925050503d80600081146115f1576040519150601f19603f3d011682016040523d82523d6000602084013e6115f6565b606091505b505090508061163a576040517f08c379a00000000000000000000000000000000000000000000000000000000081526004016116319061289b565b60405180910390fd5b6000600460003373ffffffffffffffffffffffffffffffffffffffff1673ffffffffffffffffffffffffffffffffffffffff1681526020019081526020016000208190555050565b60005481565b6060600180548060200260200160405190810160405280929190818152602001828054801561170c57602002820191906000526020600020905b8160009054906101000a900473ffffffffffffffffffffffffffffffffffffffff1673ffffffffffffffffffffffffffffffffffffffff16815260200190600101908083116116c2575b5050505050905090565b6060600260008373ffffffffffffffffffffffffffffffffffffffff1673ffffffffffffffffffffffffffffffffffffffff168152602001908152602001600020805480602002602001604051908101604052809291908181526020016000905b828210156119de578382906000526020600020906008020160405180610100016040529081600082015481526020016001820180546117b590612b64565b80601f01602080910402602001604051908101604052809291908181526020018280546117e190612b64565b801561182e5780601f106118035761010080835404028352916020019161182e565b820191906000526020600020905b81548152906001019060200180831161181157829003601f168201915b5050505050815260200160028201805461184790612b64565b80601f016020809104026020016040519081016040528092919081815260200182805461187390612b64565b80156118c05780601f10611895576101008083540402835291602001916118c0565b820191906000526020600020905b8154815290600101906020018083116118a357829003601f168201915b505050505081526020016003820180546118d990612b64565b80601f016020809104026020016040519081016040528092919081815260200182805461190590612b64565b80156119525780601f1061192757610100808354040283529160200191611952565b820191906000526020600020905b81548152906001019060200180831161193557829003601f168201915b5050505050815260200160048201548152602001600582015481526020016006820160009054906101000a900473ffffffffffffffffffffffffffffffffffffffff1673ffffffffffffffffffffffffffffffffffffffff1673ffffffffffffffffffffffffffffffffffffffff16815260200160078201548152505081526020019060010190611777565b505050509050919050565b600181815481106119f957600080fd5b906000526020600020016000915054906101000a900473ffffffffffffffffffffffffffffffffffffffff1681565b60001515611a34610879565b151514611a76576040517f08c379a0000000000000000000000000000000000000000000000000000000008152600401611a6d906128bb565b60405180910390fd5b6001339080600181540180825580915050600190039060005260206000200160009091909190916101000a81548173ffffffffffffffffffffffffffffffffffffffff021916908373ffffffffffffffffffffffffffffffffffffffff160217905550565b60005b600260008573ffffffffffffffffffffffffffffffffffffffff1673ffffffffffffffffffffffffffffffffffffffff16815260200190815260200160002080549050811015611c6b5782600260008673ffffffffffffffffffffffffffffffffffffffff1673ffffffffffffffffffffffffffffffffffffffff1681526020019081526020016000208281548110611ba0577f4e487b7100000000000000000000000000000000000000000000000000000000600052603260045260246000fd5b9060005260206000209060080201600001541415611c585781600260008673ffffffffffffffffffffffffffffffffffffffff1673ffffffffffffffffffffffffffffffffffffffff1681526020019081526020016000208281548110611c30577f4e487b7100000000000000000000000000000000000000000000000000000000600052603260045260246000fd5b90600052602060002090600802016005016000828254611c509190612aab565b925050819055505b8080611c6390612b96565b915050611ade565b50505050565b828054611c7d90612b64565b90600052602060002090601f016020900481019282611c9f5760008555611ce6565b82601f10611cb857805160ff1916838001178555611ce6565b82800160010185558215611ce6579182015b82811115611ce5578251825591602001919060010190611cca565b5b509050611cf39190611d55565b5090565b604051806101000160405280600080191681526020016060815260200160608152602001606081526020016000815260200160008152602001600073ffffffffffffffffffffffffffffffffffffffff168152602001600081525090565b5b80821115611d6e576000816000905550600101611d56565b5090565b600081359050611d8181612dd8565b92915050565b600081359050611d9681612def565b92915050565b60008083601f840112611dae57600080fd5b8235905067ffffffffffffffff811115611dc757600080fd5b602083019150836001820283011115611ddf57600080fd5b9250929050565b600081359050611df581612e06565b92915050565b600060208284031215611e0d57600080fd5b6000611e1b84828501611d72565b91505092915050565b60008060408385031215611e3757600080fd5b6000611e4585828601611d72565b9250506020611e5685828601611d87565b9150509250929050565b600080600060608486031215611e7557600080fd5b6000611e8386828701611d72565b9350506020611e9486828701611d87565b9250506040611ea586828701611de6565b9150509250925092565b60008060408385031215611ec257600080fd5b6000611ed085828601611d72565b9250506020611ee185828601611de6565b9150509250929050565b60008060008060008060008060a0898b031215611f0757600080fd5b600089013567ffffffffffffffff811115611f2157600080fd5b611f2d8b828c01611d9c565b9850985050602089013567ffffffffffffffff811115611f4c57600080fd5b611f588b828c01611d9c565b9650965050604089013567ffffffffffffffff811115611f7757600080fd5b611f838b828c01611d9c565b94509450506060611f968b828c01611de6565b9250506080611fa78b828c01611de6565b9150509295985092959890939650565b600060208284031215611fc957600080fd5b6000611fd784828501611de6565b91505092915050565b6000611fec8383612020565b60208301905092915050565b60006120048383612348565b905092915050565b600061201883836124c4565b905092915050565b61202981612adf565b82525050565b61203881612adf565b82525050565b61204f61204a82612adf565b612bdf565b82525050565b600061206082612948565b61206a818561299b565b935061207583612918565b8060005b838110156120a657815161208d8882611fe0565b975061209883612974565b925050600181019050612079565b5085935050505092915050565b60006120be82612953565b6120c881856129ac565b9350836020820285016120da85612928565b8060005b8581101561211657848403895281516120f78582611ff8565b945061210283612981565b925060208a019950506001810190506120de565b50829750879550505050505092915050565b60006121338261295e565b61213d81856129bd565b93508360208202850161214f85612938565b8060005b8581101561218b578484038952815161216c858261200c565b94506121778361298e565b925060208a01995050600181019050612153565b50829750879550505050505092915050565b6121a681612af1565b82525050565b6121b581612afd565b82525050565b6121c481612afd565b82525050565b6121db6121d682612afd565b612bf1565b82525050565b60006121ec82612969565b6121f681856129d9565b9350612206818560208601612b31565b61220f81612c75565b840191505092915050565b600061222582612969565b61222f81856129ea565b935061223f818560208601612b31565b61224881612c75565b840191505092915050565b60006122606031836129ea565b915061226b82612c93565b604082019050919050565b60006122836009836129ea565b915061228e82612ce2565b602082019050919050565b60006122a6600c836129ea565b91506122b182612d0b565b602082019050919050565b60006122c96014836129ea565b91506122d482612d34565b602082019050919050565b60006122ec6000836129ce565b91506122f782612d5d565b600082019050919050565b600061230f6010836129ea565b915061231a82612d60565b602082019050919050565b60006123326021836129ea565b915061233d82612d89565b604082019050919050565b60006101008301600083015161236160008601826121ac565b506020830151848203602086015261237982826121e1565b9150506040830151848203604086015261239382826121e1565b915050606083015184820360608601526123ad82826121e1565b91505060808301516123c26080860182612597565b5060a08301516123d560a0860182612597565b5060c08301516123e860c0860182612020565b5060e08301516123fb60e0860182612597565b508091505092915050565b60006101008301600083015161241f60008601826121ac565b506020830151848203602086015261243782826121e1565b9150506040830151848203604086015261245182826121e1565b9150506060830151848203606086015261246b82826121e1565b91505060808301516124806080860182612597565b5060a083015161249360a0860182612597565b5060c08301516124a660c0860182612020565b5060e08301516124b960e0860182612597565b508091505092915050565b6000610120830160008301516124dd60008601826121ac565b5060208301516124f060208601826121ac565b506040830151848203604086015261250882826121e1565b9150506060830151848203606086015261252282826121e1565b9150506080830151848203608086015261253c82826121e1565b91505060a083015161255160a0860182612597565b5060c083015161256460c0860182612597565b5060e083015161257760e0860182612020565b5061010083015161258c610100860182612597565b508091505092915050565b6125a081612b27565b82525050565b6125af81612b27565b82525050565b6125c66125c182612b27565b612c0d565b82525050565b60006125d8828661203e565b6014820191506125e882856121ca565b6020820191506125f882846125b5565b602082019150819050949350505050565b6000612615828561203e565b60148201915061262582846125b5565b6020820191508190509392505050565b6000612640826122df565b9150819050919050565b600060208201905061265f600083018461202f565b92915050565b6000602082019050818103600083015261267f8184612055565b905092915050565b600060208201905081810360008301526126a181846120b3565b905092915050565b600060208201905081810360008301526126c38184612128565b905092915050565b60006020820190506126e0600083018461219d565b92915050565b6000610120820190506126fc600083018c6121bb565b612709602083018b6121bb565b818103604083015261271b818a61221a565b9050818103606083015261272f818961221a565b90508181036080830152612743818861221a565b905061275260a08301876125a6565b61275f60c08301866125a6565b61276c60e083018561202f565b61277a6101008301846125a6565b9a9950505050505050505050565b60006101008201905061279e600083018b6121bb565b81810360208301526127b0818a61221a565b905081810360408301526127c4818961221a565b905081810360608301526127d8818861221a565b90506127e760808301876125a6565b6127f460a08301866125a6565b61280160c083018561202f565b61280e60e08301846125a6565b9998505050505050505050565b6000602082019050818103600083015261283481612253565b9050919050565b6000602082019050818103600083015261285481612276565b9050919050565b6000602082019050818103600083015261287481612299565b9050919050565b60006020820190508181036000830152612894816122bc565b9050919050565b600060208201905081810360008301526128b481612302565b9050919050565b600060208201905081810360008301526128d481612325565b9050919050565b600060208201905081810360008301526128f58184612406565b905092915050565b600060208201905061291260008301846125a6565b92915050565b6000819050602082019050919050565b6000819050602082019050919050565b6000819050602082019050919050565b600081519050919050565b600081519050919050565b600081519050919050565b600081519050919050565b6000602082019050919050565b6000602082019050919050565b6000602082019050919050565b600082825260208201905092915050565b600082825260208201905092915050565b600082825260208201905092915050565b600081905092915050565b600082825260208201905092915050565b600082825260208201905092915050565b6000612a0682612b27565b9150612a1183612b27565b9250827fffffffffffffffffffffffffffffffffffffffffffffffffffffffffffffffff03821115612a4657612a45612c17565b5b828201905092915050565b6000612a5c82612b27565b9150612a6783612b27565b9250817fffffffffffffffffffffffffffffffffffffffffffffffffffffffffffffffff0483118215151615612aa057612a9f612c17565b5b828202905092915050565b6000612ab682612b27565b9150612ac183612b27565b925082821015612ad457612ad3612c17565b5b828203905092915050565b6000612aea82612b07565b9050919050565b60008115159050919050565b6000819050919050565b600073ffffffffffffffffffffffffffffffffffffffff82169050919050565b6000819050919050565b60005b83811015612b4f578082015181840152602081019050612b34565b83811115612b5e576000848401525b50505050565b60006002820490506001821680612b7c57607f821691505b60208210811415612b9057612b8f612c46565b5b50919050565b6000612ba182612b27565b91507fffffffffffffffffffffffffffffffffffffffffffffffffffffffffffffffff821415612bd457612bd3612c17565b5b600182019050919050565b6000612bea82612bfb565b9050919050565b6000819050919050565b6000612c0682612c86565b9050919050565b6000819050919050565b7f4e487b7100000000000000000000000000000000000000000000000000000000600052601160045260246000fd5b7f4e487b7100000000000000000000000000000000000000000000000000000000600052602260045260246000fd5b6000601f19601f8301169050919050565b60008160601b9050919050565b7f416e6461206861727573206d656e646166746172206d656e6a61646920746f6b60008201527f6f207465726c6562696820646168756c75000000000000000000000000000000602082015250565b7f4e6f7420666f756e640000000000000000000000000000000000000000000000600082015250565b7f57726f6e672076616c7565210000000000000000000000000000000000000000600082015250565b7f53746f636b20746964616b207465727365646961000000000000000000000000600082015250565b50565b7f5472616e73666572206661696c65642e00000000000000000000000000000000600082015250565b7f416e6461207375646168206d656e646166746172206d656e6a61646920746f6b60008201527f6f00000000000000000000000000000000000000000000000000000000000000602082015250565b612de181612adf565b8114612dec57600080fd5b50565b612df881612afd565b8114612e0357600080fd5b50565b612e0f81612b27565b8114612e1a57600080fd5b5056fea2646970667358221220b14b80db42dfdae90838f439d7cf8be24f0db1756a6f697291c0daadb092211064736f6c63430008040033",
  "linkReferences": {},
  "deployedLinkReferences": {}
}